{
  "abi": [
    {
      "inputs": [
        {
          "internalType": "uint256",
          "name": "",
          "type": "uint256"
        }
      ],
      "name": "blocks",
      "outputs": [
        {
          "internalType": "uint256",
          "name": "baseFee",
          "type": "uint256"
        }
      ],
      "stateMutability": "view",
      "type": "function"
    },
    {
      "inputs": [],
      "name": "finaliseAuction",
      "outputs": [
        {
          "internalType": "bool",
          "name": "",
          "type": "bool"
        }
      ],
      "stateMutability": "nonpayable",
      "type": "function"
    },
    {
      "inputs": [
        {
          "internalType": "uint256",
          "name": "blockNumber",
          "type": "uint256"
        },
        {
          "internalType": "uint256",
          "name": "maximumBaseFee",
          "type": "uint256"
        }
      ],
      "name": "isCongested",
      "outputs": [
        {
          "internalType": "bool",
          "name": "",
          "type": "bool"
        }
      ],
      "stateMutability": "view",
      "type": "function"
    },
    {
      "inputs": [
        {
          "internalType": "uint256",
          "name": "startBlock",
          "type": "uint256"
        },
        {
          "internalType": "uint256",
          "name": "k",
          "type": "uint256"
        },
        {
          "internalType": "uint256",
          "name": "n",
          "type": "uint256"
        },
        {
          "internalType": "uint256",
          "name": "maximumBaseFee",
          "type": "uint256"
        }
      ],
      "name": "isPeriodCongested",
      "outputs": [
        {
          "internalType": "bool",
          "name": "",
          "type": "bool"
        }
      ],
      "stateMutability": "view",
      "type": "function"
    },
    {
      "inputs": [
        {
          "internalType": "uint256[]",
          "name": "fee",
          "type": "uint256[]"
        }
      ],
      "name": "setBlocks",
      "outputs": [],
      "stateMutability": "nonpayable",
      "type": "function"
    },
    {
      "inputs": [
        {
          "internalType": "uint256",
          "name": "_startBlock",
          "type": "uint256"
        },
        {
          "internalType": "uint256",
          "name": "_k",
          "type": "uint256"
        },
        {
          "internalType": "uint256",
          "name": "_n",
          "type": "uint256"
        },
        {
          "internalType": "uint256",
          "name": "_gasPriceCeiling",
          "type": "uint256"
        }
      ],
      "name": "startAuction",
      "outputs": [],
      "stateMutability": "nonpayable",
      "type": "function"
    }
  ],
  "evm": {
    "bytecode": {
      "linkReferences": {},
      "object": "60806040526001805460ff1916905534801561001a57600080fd5b506105c78061002a6000396000f3fe608060405234801561001057600080fd5b50600436106100625760003560e01c80635228733f146100675780637fb342ee146100855780638a2aea5e1461009a5780638d2c4488146100ad5780639157447d146100c0578063f25b3f99146100d3575b600080fd5b61006f6100f3565b60405161007c9190610499565b60405180910390f35b610098610093366004610397565b61011d565b005b61006f6100a8366004610468565b61018c565b6100986100bb366004610468565b610310565b61006f6100ce366004610447565b610330565b6100e66100e136600461042f565b610366565b60405161007c9190610541565b600061010960025460035460045460055461018c565b156101165750600061011a565b5060015b90565b60005b815181101561018857610131610384565b82828151811061013d57fe5b60209081029190910101518152600080546001818101835591805291517f290decd9548b62a8d60345a988386fc84ba6bc95484008f6362f93160ef3e5639092019190915501610120565b5050565b6000838310156101b75760405162461bcd60e51b81526004016101ae906104f8565b60405180910390fd5b6000548311156101d95760405162461bcd60e51b81526004016101ae906104a4565b600080546040805191889003808352602080820284010190915260609190801561020d578160200160208202803883390190505b509050865b85880181101561026c576102268186610330565b82828151811061023257fe5b60200260200101901515908115158152505081818151811061025057fe5b602002602001015115610264578260010192505b600101610212565b508685015b60005481101561030057818682038151811061028957fe5b60200260200101511561029d576001830392505b6102a78186610330565b8282815181106102b357fe5b6020026020010190151590811515815250508181815181106102d157fe5b6020026020010151156102e5578260010192505b8683106102f85760019350505050610308565b600101610271565b506000925050505b949350505050565b6002939093556003919091556004556005556001805460ff191681179055565b6000816000848154811061034057fe5b9060005260206000200160000154111561035c57506001610360565b5060005b92915050565b6000818154811061037357fe5b600091825260209091200154905081565b6040518060200160405280600081525090565b600060208083850312156103a9578182fd5b823567ffffffffffffffff8111156103bf578283fd5b80840185601f8201126103d0578384fd5b803591506103e56103e083610571565b61054a565b8281528381019082850185850284018601891015610401578687fd5b8693505b84841015610423578035835260019390930192918501918501610405565b50979650505050505050565b600060208284031215610440578081fd5b5035919050565b60008060408385031215610459578081fd5b50508035926020909101359150565b6000806000806080858703121561047d578182fd5b5050823594602084013594506040840135936060013592509050565b901515815260200190565b60208082526034908201527f546f74616c20626c6f636b732073686f756c64206265206772656174657220746040820152733430b7101437b91032b8bab0b6103a379490271760611b606082015260800190565b60208082526029908201527f4e2073686f756c642062652067726561746572207468616e20286f722065717560408201526830b6103a379490259760b91b606082015260800190565b90815260200190565b60405181810167ffffffffffffffff8111828210171561056957600080fd5b604052919050565b600067ffffffffffffffff821115610587578081fd5b506020908102019056fea264697066735822122066ace724500715fd6ce4dc639d2d17d22cdc3a90c9bb0bfa90264890fd65550864736f6c63430006020033",
      "opcodes": "PUSH1 0x80 PUSH1 0x40 MSTORE PUSH1 0x1 DUP1 SLOAD PUSH1 0xFF NOT AND SWAP1 SSTORE CALLVALUE DUP1 ISZERO PUSH2 0x1A JUMPI PUSH1 0x0 DUP1 REVERT JUMPDEST POP PUSH2 0x5C7 DUP1 PUSH2 0x2A PUSH1 0x0 CODECOPY PUSH1 0x0 RETURN INVALID PUSH1 0x80 PUSH1 0x40 MSTORE CALLVALUE DUP1 ISZERO PUSH2 0x10 JUMPI PUSH1 0x0 DUP1 REVERT JUMPDEST POP PUSH1 0x4 CALLDATASIZE LT PUSH2 0x62 JUMPI PUSH1 0x0 CALLDATALOAD PUSH1 0xE0 SHR DUP1 PUSH4 0x5228733F EQ PUSH2 0x67 JUMPI DUP1 PUSH4 0x7FB342EE EQ PUSH2 0x85 JUMPI DUP1 PUSH4 0x8A2AEA5E EQ PUSH2 0x9A JUMPI DUP1 PUSH4 0x8D2C4488 EQ PUSH2 0xAD JUMPI DUP1 PUSH4 0x9157447D EQ PUSH2 0xC0 JUMPI DUP1 PUSH4 0xF25B3F99 EQ PUSH2 0xD3 JUMPI JUMPDEST PUSH1 0x0 DUP1 REVERT JUMPDEST PUSH2 0x6F PUSH2 0xF3 JUMP JUMPDEST PUSH1 0x40 MLOAD PUSH2 0x7C SWAP2 SWAP1 PUSH2 0x499 JUMP JUMPDEST PUSH1 0x40 MLOAD DUP1 SWAP2 SUB SWAP1 RETURN JUMPDEST PUSH2 0x98 PUSH2 0x93 CALLDATASIZE PUSH1 0x4 PUSH2 0x397 JUMP JUMPDEST PUSH2 0x11D JUMP JUMPDEST STOP JUMPDEST PUSH2 0x6F PUSH2 0xA8 CALLDATASIZE PUSH1 0x4 PUSH2 0x468 JUMP JUMPDEST PUSH2 0x18C JUMP JUMPDEST PUSH2 0x98 PUSH2 0xBB CALLDATASIZE PUSH1 0x4 PUSH2 0x468 JUMP JUMPDEST PUSH2 0x310 JUMP JUMPDEST PUSH2 0x6F PUSH2 0xCE CALLDATASIZE PUSH1 0x4 PUSH2 0x447 JUMP JUMPDEST PUSH2 0x330 JUMP JUMPDEST PUSH2 0xE6 PUSH2 0xE1 CALLDATASIZE PUSH1 0x4 PUSH2 0x42F JUMP JUMPDEST PUSH2 0x366 JUMP JUMPDEST PUSH1 0x40 MLOAD PUSH2 0x7C SWAP2 SWAP1 PUSH2 0x541 JUMP JUMPDEST PUSH1 0x0 PUSH2 0x109 PUSH1 0x2 SLOAD PUSH1 0x3 SLOAD PUSH1 0x4 SLOAD PUSH1 0x5 SLOAD PUSH2 0x18C JUMP JUMPDEST ISZERO PUSH2 0x116 JUMPI POP PUSH1 0x0 PUSH2 0x11A JUMP JUMPDEST POP PUSH1 0x1 JUMPDEST SWAP1 JUMP JUMPDEST PUSH1 0x0 JUMPDEST DUP2 MLOAD DUP2 LT ISZERO PUSH2 0x188 JUMPI PUSH2 0x131 PUSH2 0x384 JUMP JUMPDEST DUP3 DUP3 DUP2 MLOAD DUP2 LT PUSH2 0x13D JUMPI INVALID JUMPDEST PUSH1 0x20 SWAP1 DUP2 MUL SWAP2 SWAP1 SWAP2 ADD ADD MLOAD DUP2 MSTORE PUSH1 0x0 DUP1 SLOAD PUSH1 0x1 DUP2 DUP2 ADD DUP4 SSTORE SWAP2 DUP1 MSTORE SWAP2 MLOAD PUSH32 0x290DECD9548B62A8D60345A988386FC84BA6BC95484008F6362F93160EF3E563 SWAP1 SWAP3 ADD SWAP2 SWAP1 SWAP2 SSTORE ADD PUSH2 0x120 JUMP JUMPDEST POP POP JUMP JUMPDEST PUSH1 0x0 DUP4 DUP4 LT ISZERO PUSH2 0x1B7 JUMPI PUSH1 0x40 MLOAD PUSH3 0x461BCD PUSH1 0xE5 SHL DUP2 MSTORE PUSH1 0x4 ADD PUSH2 0x1AE SWAP1 PUSH2 0x4F8 JUMP JUMPDEST PUSH1 0x40 MLOAD DUP1 SWAP2 SUB SWAP1 REVERT JUMPDEST PUSH1 0x0 SLOAD DUP4 GT ISZERO PUSH2 0x1D9 JUMPI PUSH1 0x40 MLOAD PUSH3 0x461BCD PUSH1 0xE5 SHL DUP2 MSTORE PUSH1 0x4 ADD PUSH2 0x1AE SWAP1 PUSH2 0x4A4 JUMP JUMPDEST PUSH1 0x0 DUP1 SLOAD PUSH1 0x40 DUP1 MLOAD SWAP2 DUP9 SWAP1 SUB DUP1 DUP4 MSTORE PUSH1 0x20 DUP1 DUP3 MUL DUP5 ADD ADD SWAP1 SWAP2 MSTORE PUSH1 0x60 SWAP2 SWAP1 DUP1 ISZERO PUSH2 0x20D JUMPI DUP2 PUSH1 0x20 ADD PUSH1 0x20 DUP3 MUL DUP1 CODESIZE DUP4 CODECOPY ADD SWAP1 POP JUMPDEST POP SWAP1 POP DUP7 JUMPDEST DUP6 DUP9 ADD DUP2 LT ISZERO PUSH2 0x26C JUMPI PUSH2 0x226 DUP2 DUP7 PUSH2 0x330 JUMP JUMPDEST DUP3 DUP3 DUP2 MLOAD DUP2 LT PUSH2 0x232 JUMPI INVALID JUMPDEST PUSH1 0x20 MUL PUSH1 0x20 ADD ADD SWAP1 ISZERO ISZERO SWAP1 DUP2 ISZERO ISZERO DUP2 MSTORE POP POP DUP2 DUP2 DUP2 MLOAD DUP2 LT PUSH2 0x250 JUMPI INVALID JUMPDEST PUSH1 0x20 MUL PUSH1 0x20 ADD ADD MLOAD ISZERO PUSH2 0x264 JUMPI DUP3 PUSH1 0x1 ADD SWAP3 POP JUMPDEST PUSH1 0x1 ADD PUSH2 0x212 JUMP JUMPDEST POP DUP7 DUP6 ADD JUMPDEST PUSH1 0x0 SLOAD DUP2 LT ISZERO PUSH2 0x300 JUMPI DUP2 DUP7 DUP3 SUB DUP2 MLOAD DUP2 LT PUSH2 0x289 JUMPI INVALID JUMPDEST PUSH1 0x20 MUL PUSH1 0x20 ADD ADD MLOAD ISZERO PUSH2 0x29D JUMPI PUSH1 0x1 DUP4 SUB SWAP3 POP JUMPDEST PUSH2 0x2A7 DUP2 DUP7 PUSH2 0x330 JUMP JUMPDEST DUP3 DUP3 DUP2 MLOAD DUP2 LT PUSH2 0x2B3 JUMPI INVALID JUMPDEST PUSH1 0x20 MUL PUSH1 0x20 ADD ADD SWAP1 ISZERO ISZERO SWAP1 DUP2 ISZERO ISZERO DUP2 MSTORE POP POP DUP2 DUP2 DUP2 MLOAD DUP2 LT PUSH2 0x2D1 JUMPI INVALID JUMPDEST PUSH1 0x20 MUL PUSH1 0x20 ADD ADD MLOAD ISZERO PUSH2 0x2E5 JUMPI DUP3 PUSH1 0x1 ADD SWAP3 POP JUMPDEST DUP7 DUP4 LT PUSH2 0x2F8 JUMPI PUSH1 0x1 SWAP4 POP POP POP POP PUSH2 0x308 JUMP JUMPDEST PUSH1 0x1 ADD PUSH2 0x271 JUMP JUMPDEST POP PUSH1 0x0 SWAP3 POP POP POP JUMPDEST SWAP5 SWAP4 POP POP POP POP JUMP JUMPDEST PUSH1 0x2 SWAP4 SWAP1 SWAP4 SSTORE PUSH1 0x3 SWAP2 SWAP1 SWAP2 SSTORE PUSH1 0x4 SSTORE PUSH1 0x5 SSTORE PUSH1 0x1 DUP1 SLOAD PUSH1 0xFF NOT AND DUP2 OR SWAP1 SSTORE JUMP JUMPDEST PUSH1 0x0 DUP2 PUSH1 0x0 DUP5 DUP2 SLOAD DUP2 LT PUSH2 0x340 JUMPI INVALID JUMPDEST SWAP1 PUSH1 0x0 MSTORE PUSH1 0x20 PUSH1 0x0 KECCAK256 ADD PUSH1 0x0 ADD SLOAD GT ISZERO PUSH2 0x35C JUMPI POP PUSH1 0x1 PUSH2 0x360 JUMP JUMPDEST POP PUSH1 0x0 JUMPDEST SWAP3 SWAP2 POP POP JUMP JUMPDEST PUSH1 0x0 DUP2 DUP2 SLOAD DUP2 LT PUSH2 0x373 JUMPI INVALID JUMPDEST PUSH1 0x0 SWAP2 DUP3 MSTORE PUSH1 0x20 SWAP1 SWAP2 KECCAK256 ADD SLOAD SWAP1 POP DUP2 JUMP JUMPDEST PUSH1 0x40 MLOAD DUP1 PUSH1 0x20 ADD PUSH1 0x40 MSTORE DUP1 PUSH1 0x0 DUP2 MSTORE POP SWAP1 JUMP JUMPDEST PUSH1 0x0 PUSH1 0x20 DUP1 DUP4 DUP6 SUB SLT ISZERO PUSH2 0x3A9 JUMPI DUP2 DUP3 REVERT JUMPDEST DUP3 CALLDATALOAD PUSH8 0xFFFFFFFFFFFFFFFF DUP2 GT ISZERO PUSH2 0x3BF JUMPI DUP3 DUP4 REVERT JUMPDEST DUP1 DUP5 ADD DUP6 PUSH1 0x1F DUP3 ADD SLT PUSH2 0x3D0 JUMPI DUP4 DUP5 REVERT JUMPDEST DUP1 CALLDATALOAD SWAP2 POP PUSH2 0x3E5 PUSH2 0x3E0 DUP4 PUSH2 0x571 JUMP JUMPDEST PUSH2 0x54A JUMP JUMPDEST DUP3 DUP2 MSTORE DUP4 DUP2 ADD SWAP1 DUP3 DUP6 ADD DUP6 DUP6 MUL DUP5 ADD DUP7 ADD DUP10 LT ISZERO PUSH2 0x401 JUMPI DUP7 DUP8 REVERT JUMPDEST DUP7 SWAP4 POP JUMPDEST DUP5 DUP5 LT ISZERO PUSH2 0x423 JUMPI DUP1 CALLDATALOAD DUP4 MSTORE PUSH1 0x1 SWAP4 SWAP1 SWAP4 ADD SWAP3 SWAP2 DUP6 ADD SWAP2 DUP6 ADD PUSH2 0x405 JUMP JUMPDEST POP SWAP8 SWAP7 POP POP POP POP POP POP POP JUMP JUMPDEST PUSH1 0x0 PUSH1 0x20 DUP3 DUP5 SUB SLT ISZERO PUSH2 0x440 JUMPI DUP1 DUP2 REVERT JUMPDEST POP CALLDATALOAD SWAP2 SWAP1 POP JUMP JUMPDEST PUSH1 0x0 DUP1 PUSH1 0x40 DUP4 DUP6 SUB SLT ISZERO PUSH2 0x459 JUMPI DUP1 DUP2 REVERT JUMPDEST POP POP DUP1 CALLDATALOAD SWAP3 PUSH1 0x20 SWAP1 SWAP2 ADD CALLDATALOAD SWAP2 POP JUMP JUMPDEST PUSH1 0x0 DUP1 PUSH1 0x0 DUP1 PUSH1 0x80 DUP6 DUP8 SUB SLT ISZERO PUSH2 0x47D JUMPI DUP2 DUP3 REVERT JUMPDEST POP POP DUP3 CALLDATALOAD SWAP5 PUSH1 0x20 DUP5 ADD CALLDATALOAD SWAP5 POP PUSH1 0x40 DUP5 ADD CALLDATALOAD SWAP4 PUSH1 0x60 ADD CALLDATALOAD SWAP3 POP SWAP1 POP JUMP JUMPDEST SWAP1 ISZERO ISZERO DUP2 MSTORE PUSH1 0x20 ADD SWAP1 JUMP JUMPDEST PUSH1 0x20 DUP1 DUP3 MSTORE PUSH1 0x34 SWAP1 DUP3 ADD MSTORE PUSH32 0x546F74616C20626C6F636B732073686F756C6420626520677265617465722074 PUSH1 0x40 DUP3 ADD MSTORE PUSH20 0x3430B7101437B91032B8BAB0B6103A3794902717 PUSH1 0x61 SHL PUSH1 0x60 DUP3 ADD MSTORE PUSH1 0x80 ADD SWAP1 JUMP JUMPDEST PUSH1 0x20 DUP1 DUP3 MSTORE PUSH1 0x29 SWAP1 DUP3 ADD MSTORE PUSH32 0x4E2073686F756C642062652067726561746572207468616E20286F7220657175 PUSH1 0x40 DUP3 ADD MSTORE PUSH9 0x30B6103A3794902597 PUSH1 0xB9 SHL PUSH1 0x60 DUP3 ADD MSTORE PUSH1 0x80 ADD SWAP1 JUMP JUMPDEST SWAP1 DUP2 MSTORE PUSH1 0x20 ADD SWAP1 JUMP JUMPDEST PUSH1 0x40 MLOAD DUP2 DUP2 ADD PUSH8 0xFFFFFFFFFFFFFFFF DUP2 GT DUP3 DUP3 LT OR ISZERO PUSH2 0x569 JUMPI PUSH1 0x0 DUP1 REVERT JUMPDEST PUSH1 0x40 MSTORE SWAP2 SWAP1 POP JUMP JUMPDEST PUSH1 0x0 PUSH8 0xFFFFFFFFFFFFFFFF DUP3 GT ISZERO PUSH2 0x587 JUMPI DUP1 DUP2 REVERT JUMPDEST POP PUSH1 0x20 SWAP1 DUP2 MUL ADD SWAP1 JUMP INVALID LOG2 PUSH5 0x6970667358 0x22 SLT KECCAK256 PUSH7 0xACE724500715FD PUSH13 0xE4DC639D2D17D22CDC3A90C9BB SIGNEXTEND STATICCALL SWAP1 0x26 0x48 SWAP1 REVERT PUSH6 0x550864736F6C PUSH4 0x43000602 STOP CALLER "
    }
  },
  "interface": [
    {
      "inputs": [
        {
          "internalType": "uint256",
          "name": "",
          "type": "uint256"
        }
      ],
      "name": "blocks",
      "outputs": [
        {
          "internalType": "uint256",
          "name": "baseFee",
          "type": "uint256"
        }
      ],
      "stateMutability": "view",
      "type": "function"
    },
    {
      "inputs": [],
      "name": "finaliseAuction",
      "outputs": [
        {
          "internalType": "bool",
          "name": "",
          "type": "bool"
        }
      ],
      "stateMutability": "nonpayable",
      "type": "function"
    },
    {
      "inputs": [
        {
          "internalType": "uint256",
          "name": "blockNumber",
          "type": "uint256"
        },
        {
          "internalType": "uint256",
          "name": "maximumBaseFee",
          "type": "uint256"
        }
      ],
      "name": "isCongested",
      "outputs": [
        {
          "internalType": "bool",
          "name": "",
          "type": "bool"
        }
      ],
      "stateMutability": "view",
      "type": "function"
    },
    {
      "inputs": [
        {
          "internalType": "uint256",
          "name": "startBlock",
          "type": "uint256"
        },
        {
          "internalType": "uint256",
          "name": "k",
          "type": "uint256"
        },
        {
          "internalType": "uint256",
          "name": "n",
          "type": "uint256"
        },
        {
          "internalType": "uint256",
          "name": "maximumBaseFee",
          "type": "uint256"
        }
      ],
      "name": "isPeriodCongested",
      "outputs": [
        {
          "internalType": "bool",
          "name": "",
          "type": "bool"
        }
      ],
      "stateMutability": "view",
      "type": "function"
    },
    {
      "inputs": [
        {
          "internalType": "uint256[]",
          "name": "fee",
          "type": "uint256[]"
        }
      ],
      "name": "setBlocks",
      "outputs": [],
      "stateMutability": "nonpayable",
      "type": "function"
    },
    {
      "inputs": [
        {
          "internalType": "uint256",
          "name": "_startBlock",
          "type": "uint256"
        },
        {
          "internalType": "uint256",
          "name": "_k",
          "type": "uint256"
        },
        {
          "internalType": "uint256",
          "name": "_n",
          "type": "uint256"
        },
        {
          "internalType": "uint256",
          "name": "_gasPriceCeiling",
          "type": "uint256"
        }
      ],
      "name": "startAuction",
      "outputs": [],
      "stateMutability": "nonpayable",
      "type": "function"
    }
  ]
}